{
    "contractName": "ZombieFactory",
    "abi": [
        {
            "anonymous": false,
            "inputs": [
                {
                    "indexed": false,
                    "internalType": "uint256",
                    "name": "zombieId",
                    "type": "uint256"
                },
                {
                    "indexed": false,
                    "internalType": "string",
                    "name": "name",
                    "type": "string"
                },
                {
                    "indexed": false,
                    "internalType": "uint256",
                    "name": "dna",
                    "type": "uint256"
                }
            ],
            "name": "NewZombie",
            "type": "event"
        },
        {
            "inputs": [
                {
                    "internalType": "string",
                    "name": "_name",
                    "type": "string"
                }
            ],
            "name": "createRandomZombie",
            "outputs": [],
            "stateMutability": "nonpayable",
            "type": "function"
        },
        {
            "inputs": [
                {
                    "internalType": "uint256",
                    "name": "",
                    "type": "uint256"
                }
            ],
            "name": "zombieToOwner",
            "outputs": [
                {
                    "internalType": "address",
                    "name": "",
                    "type": "address"
                }
            ],
            "stateMutability": "view",
            "type": "function"
        },
        {
            "inputs": [
                {
                    "internalType": "uint256",
                    "name": "",
                    "type": "uint256"
                }
            ],
            "name": "zombies",
            "outputs": [
                {
                    "internalType": "string",
                    "name": "name",
                    "type": "string"
                },
                {
                    "internalType": "uint256",
                    "name": "dna",
                    "type": "uint256"
                }
            ],
            "stateMutability": "view",
            "type": "function"
        }
    ],
    "bytecode": "60806040526010600055662386f26fc1000060015534801561002057600080fd5b506105cc806100306000396000f3fe608060405234801561001057600080fd5b50600436106100415760003560e01c80632052465e14610046578063528b7b8f146100e25780637bff0a011461011b575b600080fd5b6100636004803603602081101561005c57600080fd5b50356101c3565b6040518080602001838152602001828103825284818151815260200191508051906020019080838360005b838110156100a657818101518382015260200161008e565b50505050905090810190601f1680156100d35780820380516001836020036101000a031916815260200191505b50935050505060405180910390f35b6100ff600480360360208110156100f857600080fd5b5035610276565b604080516001600160a01b039092168252519081900360200190f35b6101c16004803603602081101561013157600080fd5b81019060208101813564010000000081111561014c57600080fd5b82018360208201111561015e57600080fd5b8035906020019184600183028401116401000000008311171561018057600080fd5b91908080601f016020809104026020016040519081016040528093929190818152602001838380828437600092019190915250929550610291945050505050565b005b600281815481106101d057fe5b60009182526020918290206002918202018054604080516001831615610100026000190190921693909304601f8101859004850282018501909352828152909350918391908301828280156102665780601f1061023b57610100808354040283529160200191610266565b820191906000526020600020905b81548152906001019060200180831161024957829003601f168201915b5050505050908060010154905082565b6003602052600090815260409020546001600160a01b031681565b33600090815260046020526040902054156102f3576040805162461bcd60e51b815260206004820152601e60248201527f6d756c7469706c652063616c6c7320617265206e6f7420616c6c6f7765640000604482015290519081900360640190fd5b60006102fe8261030e565b905061030a8282610397565b5050565b600080826040516020018082805190602001908083835b602083106103445780518252601f199092019160209182019101610325565b6001836020036101000a0380198251168184511680821785525050505050509050019150506040516020818303038152906040528051906020012060001c9050600154818161038f57fe5b069392505050565b60408051808201909152828152602080820183905260028054600181018255600082905283518051919092027f405787fa12a823e0f2b7631cc41b3ba8828b3321ca811111fa75cd3aa3bb5ace01926103f49284929101906104fb565b506020918201516001918201557f3617319a054d772f909f7c479a2cebe5066e836a939412e32403c99029b92eff80546001600160a01b031916339081179091556000908152600483526040808220805490930190925581518181529182018490526060828401818152865191840191909152855191937f88f026aacbbecc90c18411df4b1185fd8d9be2470f1962f192bf84a27d0704b793859388938893909160808401918601908083838a5b838110156104ba5781810151838201526020016104a2565b50505050905090810190601f1680156104e75780820380516001836020036101000a031916815260200191505b5094505050505060405180910390a1505050565b828054600181600116156101000203166002900490600052602060002090601f016020900481019282601f1061053c57805160ff1916838001178555610569565b82800160010185558215610569579182015b8281111561056957825182559160200191906001019061054e565b50610575929150610579565b5090565b61059391905b80821115610575576000815560010161057f565b9056fea2646970667358221220cded710f1dd960f9acda0995f5c60759a431f4ab51fcbd3bc119889e95e659d664736f6c63430006040033",
    "sourcePath": "/Users/muhammadrazakhan/crypto-zombies/zombiefactory.sol",
    "compiler": {
        "name": "solc",
        "version": "0.6.4+commit.1dca32f3"
    },
    "functionHashes": {
        "createRandomZombie(string)": "7bff0a01",
        "zombieToOwner(uint256)": "528b7b8f",
        "zombies(uint256)": "2052465e"
    },
    "gasEstimates": {
        "creation": {
            "codeDepositCost": "296800",
            "executionCost": "40349",
            "totalCost": "337149"
        },
        "external": {
            "createRandomZombie(string)": "infinite",
            "zombieToOwner(uint256)": "1145",
            "zombies(uint256)": "infinite"
        },
        "internal": {
            "_createZombie(string memory,uint256)": "infinite",
            "_generateRandomDna(string memory)": "infinite"
        }
    }
}